:020000040800F2
:1000000000400220F92C0008F52B0008FB2B00080B
:1000100000000000000000000000000000000000E0
:10002000000000000000000000000000012C00089B
:1000300000000000000000000B2C0008152C000838
:10004000492D0008492D0008492D0008492D0008B8
:10005000492D0008492D0008492D0008232C0008CF
:10006000492D0008492D0008492D0008492D000898
:10007000492D0008492D0008492D0008492D000888
:10008000492D0008492D0008492D0008492D000878
:10009000492D0008392C00085D2C0008492D000866
:1000A000492D0008492D0008492D0008492D000858
:0C00B000492D0008492D0008492D0008CA
:1000BC0010B5064C2378002B07D1054B002B02D032
:1000CC00044800E000BF0123237010BD8400002011
:1000DC000000000008760008044B10B5002B03D07C
:1000EC000349044800E000BF10BDC04600000000FA
:1000FC0088000020087600080023C25C0133002A27
:10010C00FBD1581E7047000003B4714649084000EB
:10011C004900095E49008E4403BC70470022430825
:10012C008B4274D303098B425FD3030A8B4244D3B3
:10013C00030B8B4228D3030C8B420DD3FF220902F5
:10014C0012BA030C8B4202D31212090265D0030BB4
:10015C008B4219D300E0090AC30B8B4201D3CB03AA
:10016C00C01A5241830B8B4201D38B03C01A5241EC
:10017C00430B8B4201D34B03C01A5241030B8B42EE
:10018C0001D30B03C01A5241C30A8B4201D3CB02D9
:10019C00C01A5241830A8B4201D38B02C01A5241BE
:1001AC00430A8B4201D34B02C01A5241030A8B42C1
:1001BC0001D30B02C01A5241CDD2C3098B4201D3D9
:1001CC00CB01C01A524183098B4201D38B01C01A57
:1001DC00524143098B4201D34B01C01A52410309CE
:1001EC008B4201D30B01C01A5241C3088B4201D37D
:1001FC00CB00C01A524183088B4201D38B00C01A2A
:10020C00524143088B4201D34B00C01A5241411A50
:10021C0000D20146524110467047FFE701B500205D
:10022C0000F0F0F802BDC0460029F7D076E7704721
:10023C0003460B437FD4002243088B4274D303093B
:10024C008B425FD3030A8B4244D3030B8B4228D3DC
:10025C00030C8B420DD3FF22090212BA030C8B4202
:10026C0002D31212090265D0030B8B4219D300E0A2
:10027C00090AC30B8B4201D3CB03C01A5241830B27
:10028C008B4201D38B03C01A5241430B8B4201D3D7
:10029C004B03C01A5241030B8B4201D30B03C01A00
:1002AC005241C30A8B4201D3CB02C01A5241830A7A
:1002BC008B4201D38B02C01A5241430A8B4201D3A9
:1002CC004B02C01A5241030A8B4201D30B02C01AD3
:1002DC005241CDD2C3098B4201D3CB01C01A52413A
:1002EC0083098B4201D38B01C01A524143098B42C3
:1002FC0001D34B01C01A524103098B4201D30B01AC
:10030C00C01A5241C3088B4201D3CB00C01A5241D0
:10031C0083088B4201D38B00C01A524143088B4295
:10032C0001D34B00C01A5241411A00D2014652412E
:10033C00104670475DE0CA0F00D04942031000D34D
:10034C004042534000229C4603098B422DD3030AA2
:10035C008B4212D3FC22890112BA030A8B420CD3B2
:10036C00890192118B4208D3890192118B4204D3DB
:10037C0089013AD0921100E08909C3098B4201D35B
:10038C00CB01C01A524183098B4201D38B01C01A95
:10039C00524143098B4201D34B01C01A524103090C
:1003AC008B4201D30B01C01A5241C3088B4201D3BB
:1003BC00CB00C01A524183088B4201D38B00C01A68
:1003CC005241D9D243088B4201D34B00C01A52413F
:1003DC00411A00D20146634652415B10104601D3CC
:1003EC004042002B00D54942704763465B1000D356
:1003FC00404201B5002000F005F802BD0029F8D0FC
:10040C0016E770477047C046002B11D1002A0FD158
:10041C00002900D1002802D00021C943080007B4EC
:10042C00024802A14018029003BDC046D9FFFFFF4D
:10043C0003B4684601B5029800F006F8019B9E468D
:10044C0002B00CBC7047C046F0B557464E46454608
:10045C00DE46E0B504000D009246994683B08B420F
:10046C0030D82DD04946504600F0BAF82900060085
:10047C00200000F0B5F8331A9846203B9B4633D445
:10048C005A465346934042461F00534693401E0023
:10049C00AF423AD8AF4200D178E05B46A41BBD41D5
:1004AC00002B00DA75E00022002300920193012357
:1004BC005A4693400193012342469340009328E00F
:1004CC008242CFD900220023009201930C9B002B77
:1004DC0001D01C605D600098019903B0F0BCBB4674
:1004EC00B246A946A046F0BD424620239B1A52466E
:1004FC00DA40414613004A468A40170042461F43E1
:10050C00534693401E00AF42C4D9002200230092F0
:10051C0001934346002BD9D0FB0772081A43464679
:10052C007B080EE0AB4201D1A2420CD8A41A9D412B
:10053C00012024196D410021013E24184D41002E4B
:10054C0006D0AB42EED9013E24196D41002EF8D1F4
:10055C00009801995B4600196941002B24DB2B00A4
:10056C005A464446D3402A00E2401C005B46150024
:10057C00002B2ADB26009E40330026004746BE4057
:10058C003200801A9941009001919FE7A342BCD898
:10059C0083E74246202300219B1A002200910192FE
:1005AC000122DA40019286E7424620239B1A2A0058
:1005BC0046469A402300F340444613432A00E24047
:1005CC001C005B461500002BD4DA42462F0020237A
:1005DC00260097409B1ADE403B003343CDE7C046D4
:1005EC0010B5002903D100F007F8203002E0080014
:1005FC0000F002F810BDC0461C2101231B049842D8
:10060C0001D3000C10391B0A984201D3000A083997
:10061C001B09984201D30009043902A2105C40184E
:10062C007047C046040302020101010100000000F2
:10063C000000000080B500AF1E4B1F4A1A601D4B16
:10064C0000225A601B4B00229A601A4B8022120324
:10065C00DA60184B802212061A61164B00225A617E
:10066C00144B00229A61134B0022DA61114B0022C9
:10067C001A62124B180002F081FE031E05D0104BBB
:10068C00180000F0BFF900F02BFF0C4B00220121E9
:10069C00180002F0F8FF031E05D00A4B180000F0FA
:1006AC00B1F900F01DFF084B180000F0ABF9C04683
:1006BC00BD4680BDEC040020FF070000280300208D
:1006CC0020760008447600087476000880B582B065
:1006DC0002AF2E4B2E4A1A602C4B00225A602B4B29
:1006EC0000229A60294B80221203DA60274B802269
:1006FC0012061A61254B00225A61244B00229A6182
:10070C00224B0022DA61214B00221A62214800237D
:10071C00009300230122012102F000FE031E05D0EC
:10072C001D4B180000F06EF900F0DAFE194B1800A2
:10073C0002F024FE031E05D0184B180000F062F9DD
:10074C0000F0CEFE134B02220221180002F064FFCF
:10075C00031E05D0124B180000F054F900F0C0FE37
:10076C000C4B00220821180002F08DFF031E05D04F
:10077C000C4B180000F046F900F0B2FE0A4B1800C2
:10078C0000F040F9C046BD4680BDC046380500208B
:10079C00FF0700008C03002084760008AC7600086C
:1007AC00D07600080077000830770008B0B584B028
:1007BC0000AF0200FB1D1A70174B184A5A61164BFA
:1007CC00174A9A61144B174A5A62134B164ADA614C
:1007DC00114B164A1A6201F0E7FFFB1D19780F2521
:1007EC007C190D4B0322180001F038FE0300237016
:1007FC007B191B78002B04D10D4B180000F002F96B
:10080C0005E000F06DFE0B4B180000F0FBF8C04645
:10081C00BD4604B0B0BDC046A0000020D1270008E2
:10082C00B527000835280008ED2700081128000816
:10083C00407700085077000880B500AFFFF7FAFE4C
:10084C00FFF744FF094B5B781800FFF7AFFF08492F
:10085C00084B0A22180000F013F80749074B0A222C
:10086C00180000F00DF8C046BD4680BD0000002009
:10087C00D4000020CC00002004020020FC01002049
:10088C0080B584B000AFF860B960FB1D1A70FB68CE
:10089C0000221A71FB6800225A71FB68FA1D12784B
:1008AC009A71FB68BA681A60C046BD4604B080BD38
:1008BC0084B090B585B000AF78600420182400197E
:1008CC000824A446BC4460440160426083607B6899
:1008DC001A790F217B1801321A707B689B797A1870
:1008EC0012789A4202D37B1800221A707B685B79CB
:1008FC000F22BA1812789A4202D101235B421AE0F5
:10090C007B681A687B681B7919000B005B005B180D
:10091C00DB00D118042318229B180822BA189A1845
:10092C000B0013CA13C313CA13C37B680F22BA1864
:10093C0012781A7100231800BD4605B090BC08BC93
:10094C0004B0184790B585B000AF786039607B680B
:10095C001A797B685B799A4202D101235B4223E0CE
:10096C007B685A790F217B1801321A707B689B794E
:10097C007A1812789A4202D37B1800221A707B687C
:10098C001A687B685B7919000B005B005B18DB0055
:10099C00D2183B6813CA13C313CA13C37B680F2244
:1009AC00BA1812785A7100231800BD4605B090BDD4
:1009BC000FB480B5C2B000AF8A235B00FB183B605C
:1009CC003B6888225200BA18126880214900381DF1
:1009DC0006F0BEF903007A1DFF3213603B1D1800B0
:1009EC00FFF78AFB03009AB2391D05480A2305F06C
:1009FC007BFAC046BD4642B080BC08BC04B0184768
:100A0C005404002080B582B000AF78607B68180079
:100A1C00FFF772FB03009AB2796804480A2305F0C9
:100A2C0063FAC046BD4602B080BDC04654040020E7
:100A3C0080B584B000AF786039600023FB600CE0B7
:100A4C00FB687A68D3181B781A000A4B110018003F
:100A5C00FFF7AEFFFB680133FB60FA683B689A4214
:100A6C00EEDB054B1800FFF7CDFFC046BD4604B0CA
:100A7C0080BDC0465C77000864770008F0B587B08D
:100A8C0004AF02F05DF900F0ADF900F01FFB00F0CF
:100A9C00CFFA00F08FFA00F0FDF900F043FAFFF7FF
:100AAC00CBFEB64B1B78DBB2012B73D1B34B0022C0
:100ABC001A7080231902A023DB050122180003F011
:100ACC00BCFA60E0AE4AF91DAE4B180001F0F5FD22
:100ADC0003001A00AC4B1A70AB4B1B78002B4ED199
:100AEC00FB1D1B781A00A94BDA60A64B5A68A74B62
:100AFC001A60A64B00229A60A24B1B78002B04D0E4
:100B0C00A24B8022D2055A6002E0A04B00225A6010
:100B1C009F4B1800FFF776FF9C4B9E486A461100CE
:100B2C001A000C3270CA70C119685A689B68FFF7BA
:100B3C00BFFE994B1800FFF765FF914B0821180079
:100B4C00FFF776FF914BDA68944B11001800FFF712
:100B5C002FFF8E4B1A68924B11001800FFF728FFDD
:100B6C008A4B9A688F4B11001800FFF721FF874BB7
:100B7C005A688D4B11001800FFF71AFF03E08B4BDE
:100B8C001800FFF715FF7F4B180001F0F4FD030070
:100B9C00032B97D0864A7F4B11001800FFF7D2FE2B
:100BAC000300DAB2834B1A705FE0834B1800FFF737
:100BBC0029FF7F4B9A68814B9A607D4BDA687F4B9B
:100BCC00DA607B4B5B68002B0BD17C4B8022D2050F
:100BDC005A60774B1B689B04754A127C9A18774BAA
:100BEC001A60774B1800FFF70DFF764B08211800A1
:100BFC00FFF71EFF714BDA68684B11001800FFF706
:100C0C00D7FE6E4B1A68664B11001800FFF7D0FE2A
:100C1C006A4B9A68634B11001800FFF7C9FE674BCB
:100C2C005A68614B11001800FFF7C2FE654A634910
:100C3C00654B180002F0C8FB5D4A564B11001800BA
:100C4C00FFF780FE0300DAB25A4B1A7080239B0127
:100C5C005E480122190003F0F0F980231902A02349
:100C6C00DB050122180003F0E8F9524B1B78002B2E
:100C7C009BD04F4A564B11001800FFF763FE030040
:100C8C00DAB2544B1A7070E0534B1800FFF7BAFEEF
:100C9C00474B5A688023DB059A4208D14F4B002200
:100CAC005A60434B1B689A0C4C4B1A6007E04B4B39
:100CBC008022D2055A603E4B1A68484B1A603C4B56
:100CCC009A68464B9A603A4BDA68444BDA603D4A74
:100CDC004249434B180002F077FB354B5B68002B05
:100CEC0003D0334B01225A6002E0314B00225A6090
:100CFC002F4B9B68002B03D02D4B01229A6002E0F6
:100D0C002B4B00229A602A4B1968294B5B68DCB28A
:100D1C00274B9B68DDB2264BDB68DBB21948294AAE
:100D2C00019200932B00220001F0B4FB204A284BC7
:100D3C0011001800FFF706FE0300DAB2254B1A70FB
:100D4C00A023DB0500228021180003F076F9802314
:100D5C001B021E480122190003F06FF980231B02AD
:100D6C001A480122190003F068F91A4B1B78002B62
:100D7C008AD000F0B3FA00F091FA92E6E705002071
:100D8C00C4050020A0000020E4050020B4050020CC
:100D9C0068770008CC000020807700089077000866
:100DAC00A0770008B0770008C07700080800002082
:100DBC00CC050020E5050020CC7700083805002084
:100DCC00E4770008DC0500208C03002000080050AC
:100DDC00FC010020E6050020F4770008EC0400205C
:100DEC002803002090B595B000AF14243B191800CF
:100DFC003C231A00002105F077FF3B1D180010233F
:100E0C001A00002105F070FF80239B00180003F0EE
:100E1C0081F93B1901221A603B19802252025A6057
:100E2C0021007B1802221A627B1803225A627B185B
:100E3C0000229A627B181022DA627B1880229202BE
:100E4C001A637B18E02212055A637B1880229205E4
:100E5C009A637B18180003F0A9F9031E01D000F067
:100E6C003FFB3B1D07221A603B1D02225A603B1DB3
:100E7C0000229A603B1D0022DA603B1D0221180003
:100E8C0003F0F4FC031E01D000F02AFBC046BD4663
:100E9C0015B090BD80B500AF204B214A1A601F4B96
:100EAC0000225A601D4B00229A601C4B0022DA6013
:100EBC001A4B00221A74194B00225A74174B002239
:100ECC009A74164B01225A61144B04229A61134BEB
:100EDC001B22DA61114B04221A62104B01225A6256
:100EEC000E4B04229A620D4B1B22DA620B4B04222E
:100EFC001A630A4B00225A63084B00229A63074B71
:100F0C000022DA63054B180002F0A2F8031E01D090
:100F1C0000F0E6FAC046BD4680BDC046280300205E
:100F2C000064004080B500AF204B214A1A601F4B73
:100F3C0000225A601D4B00229A601C4B0022DA6082
:100F4C001A4B00221A74194B00225A74174B0022A8
:100F5C009A74164B01225A61144B04229A61134B5A
:100F6C001B22DA61114B04221A62104B01225A62C5
:100F7C000E4B04229A620D4B1B22DA620B4B02229F
:100F8C001A630A4B00225A63084B00229A63074BE0
:100F9C000022DA63054B180002F05AF8031E01D048
:100FAC0000F09EFAC046BD4680BDC0468C030020B2
:100FBC000068004080B500AF1B4B1C4A1A601A4BEE
:100FCC00822252005A60184B00229A60164BE02283
:100FDC00D200DA60144B00221A61134B00225A61C2
:100FEC00114B802292009A610F4B1022DA610E4B4A
:100FFC0000221A620C4B00225A620B4B00229A629E
:10100C00094B0722DA62084B00221A63064B0822AE
:10101C005A63054B180004F00FF8031E01D000F0C2
:10102C005FFAC046BD4680BDF00300200030014091
:10103C0080B500AF234B244A1A60224BE1225202A6
:10104C005A60204B00229A601E4B0022DA601D4B26
:10105C0000221A611B4B0C225A611A4B00229A6116
:10106C00184B0022DA61174B00221A62154B002232
:10107C005A62144B00229A62124B180004F0DEFEE6
:10108C00031E01D000F02CFA0E4B0021180005F0C5
:10109C0021FD031E01D000F023FA0A4B0021180099
:1010AC0005F058FD031E01D000F01AFA054B18008C
:1010BC0005F0D6FC031E01D000F012FAC046BD4666
:1010CC0080BDC046540400200038014090B58BB060
:1010DC0000AF14243B19180014231A00002105F04A
:1010EC0003FE684B5A6B674B04210A435A63654BEA
:1010FC005B6B042213403B613B69624B5A6B614B47
:10110C0020210A435A635F4B5B6B20221340FB6028
:10111C00FB685C4B5A6B5B4B01210A435A63594B7E
:10112C005B6B01221340BB60BB68564B5A6B554B33
:10113C0002210A435A63534B5B6B022213407B60C0
:10114C007B68504B5A6B4F4B08210A435A634D4BEB
:10115C005B6B082213403B603B68A0231B024A4890
:10116C000122190002F069FF4849A023DB05012286
:10117C00180002F062FF4649464B0122180002F0AB
:10118C005CFF454B01220821180002F056FF3B1969
:10119C00A02212021A603B1901225A603B1900224C
:1011AC009A603B190022DA603B19374A190010008B
:1011BC0002F0BAFD21007B188022D2011A600C00CB
:1011CC003B1900225A603B1900229A603B192E4AA7
:1011DC001900100002F0A8FD3B192C4A1A603B19AB
:1011EC0001225A603B1900229A603B190022DA60F6
:1011FC003A19A023DB051100180002F095FD3B19EC
:10120C00234A1A603B1901225A603B1900229A604A
:10121C003B190022DA603B191E4A1900100002F03B
:10122C0083FD3B19802252001A603B1984229203E1
:10123C005A603B1900229A603A19A023DB05110071
:10124C00180002F071FD21007B1808221A607B182F
:10125C0001225A607B1800229A607B180022DA6007
:10126C007B180D4A1900100002F05EFD00220021CF
:10127C00072001F0BBFE072001F0CDFEC046BD46A5
:10128C000BB090BD0010024000080050A080000080
:10129C000C08000000040050000C005080B500AF9A
:1012AC0001F0CAFD02000A4B1B68D21A094B1B68DD
:1012BC009A4209D901F0C0FD0200054B1A60064B99
:1012CC000821180002F0D6FEC046BD4680BDC046BF
:1012DC00E8040020040000200004005080B582B017
:1012EC0000AF8023DB01154A1900100002F088FEC4
:1012FC00031E1CD1124B1B685A1C114B1A60104B4D
:10130C001A68FA239B009A4214DD0E4B1800FFF763
:10131C0079FB3B000C4A03CA03C33A000B490C4B44
:10132C00180002F051F8064B0A4A1A6002E0044B0E
:10133C0000221A60C046BD4602B080BD00080050B5
:10134C00E8050020107800081878000838050020FF
:10135C008C0300204039D2FFF0B587B004AF786021
:10136C0039603B68012213402FD01A4B1A4A786817
:10137C00402102F06FF8031E27D180239B011748F0
:10138C000122190002F059FE134B1A68144B1A6013
:10139C00114B5A68124B5A600F4B9A68104B9A605B
:1013AC000D4BDA680E4BDA600D4B0E486A46110095
:1013BC001A000C3270CA70C119685A689B68FFF722
:1013CC0077FA094B1800FFF71DFBC046BD4603B06A
:1013DC00F0BDC04694050020100500200008005008
:1013EC0084050020CC00002020780008F0B587B0E0
:1013FC0004AF786039603B680822134049D0274B12
:10140C00274A7868412102F025F8031E41D1254B6B
:10141C001800FFF7F7FA214B08211800FFF708FB1B
:10142C00214B1800FFF7EEFA1D4B1A681F4B1100E9
:10143C001800FFF7BDFA1A4BDA681D4B11001800A3
:10144C00FFF7B6FAA023DB0501228021180002F079
:10145C00F4FD134B1A68174B1A60114B5A68154B55
:10146C005A60144B00229A600D4BDA68114BDA600B
:10147C00104B11486A4611001A000C3270CA70C128
:10148C0019685A689B68FFF713FA0C4B1800FFF7A2
:10149C00B9FAC046BD4603B0F0BDC046AC0500204D
:1014AC005C050020387800084C780008507800085B
:1014BC006C7800089C050020FC0100208078000856
:1014CC0080B582B000AF0200BB1D1A80034B012215
:1014DC001A70C046BD4602B080BDC046E70500206C
:1014EC0080B500AF72B6C046FEE780B582B000AFE3
:1014FC000200FB1D1A70FB1D1B78022B09D00ADCA5
:10150C00002B02D0012B02D005E0302304E0402355
:10151C0002E0502300E050231800BD4602B080BD0D
:10152C0080B582B000AF0200FB1D1A70FB1D1B784A
:10153C00512B09D00ADC312B02D0412B02D005E013
:10154C00812304E0822302E0842300E000231800BE
:10155C00BD4602B080BD80B582B000AF0200FB1D5D
:10156C001A70FB1D1B78512B09D00ADC312B02D0D1
:10157C00412B02D005E0402304E0422302E0442347
:10158C0000E000231800BD4602B080BD80B582B0DB
:10159C0000AF0200FB1D1A70FB1D1B78022B09D03B
:1015AC000ADC002B02D0012B02D005E0042304E05E
:1015BC00082302E0102300E000231800BD4602B00F
:1015CC0080BD80B582B000AF0200FB1D1A70FB1D00
:1015DC001B78022B09D00ADC002B02D0012B02D085
:1015EC0005E0042304E0102302E0402300E0FF2385
:1015FC001800BD4602B080BD80B582B000AF7860E7
:10160C007B685B6998477B68DB69C02098477B687F
:10161C009B6998470A2001F019FCC046BD4602B0F0
:10162C0080BDB0B584B000AF78600A00FB1C1A70A6
:10163C007B685B6998477B68DB69032098477B680C
:10164C00DB69FA1C1278100098477B685B6A0F25DF
:10165C007C199847030023707B689B6998477B191A
:10166C001B781800BD4604B0B0BD80B582B000AF89
:10167C00786008001100FB1C021C1A70BB1C0A1CB1
:10168C001A707B685B6998477B68DB690220984716
:10169C007B68DB69FA1C1278100098477B68DB6961
:1016AC00BA1C1278100098477B689B699847C04613
:1016BC00BD4602B080BD90B583B000AF78600C0021
:1016CC0010001900FB1C221C1A70BB1C021C1A7087
:1016DC007B1C0A1C1A707B685B6998477B68DB690A
:1016EC00052098477B68DB69FA1C12781000984734
:1016FC007B68DB69BA1C1278100098477B68DB6941
:10170C007A1C1278100098477B689B699847C046F2
:10171C00BD4603B090BDB0B584B000AF78607B68B7
:10172C005B6998477B68DB69A02098477B685B6A9C
:10173C000F257C199847030023707B689B69984799
:10174C007B191B781800BD4604B0B0BD80B582B0C3
:10175C0000AF78600A00FB1C1A70FB1C1B78202B56
:10176C0003D07B68FA1C12785A72FB1C1A787B68BF
:10177C001100180000F018F803001800BD4602B064
:10178C0080BD80B582B000AF78607B680E211800F8
:10179C00FFF747FF03001A001F239A431300DBB225
:1017AC001800BD4602B080BD80B584B000AF786033
:1017BC000A00FB1C1A707B681800FFF7E2FF03009D
:1017CC00202B33D1FB1C1B78202B2FD07B682B219B
:1017DC001800FFF726FF030019000F203B184022CA
:1017EC000A401A703B181B78002B05D178684023EF
:1017FC0040222B21FFF75FFF7868402340222C21E9
:10180C00FFF759FF7B686021180000F021F8031ED8
:10181C0001D0012318E00F23FB181B78002B05D1F6
:10182C007868002340222B21FFF745FF78680023BE
:10183C0040222C21FFF73FFFFB1C1A787B6811001C
:10184C00180000F005F803001800BD4604B080BD78
:10185C00B0B584B000AF78600A00FB1C1A7001F0C0
:10186C00EBFA0300FB60FB1C1B787868E0220F216D
:10187C00FFF721FF0B257C197B680E211800FFF761
:10188C00D0FE030023707B191B78E0221A40FB1C4E
:10189C001B789A4201D1002307E001F0CDFA020037
:1018AC00FB68D31AC82BDED901231800BD4604B03F
:1018BC00B0BD000080B584B000AF786008001100A6
:1018CC00FB1C021C1A70BB1C0A1C1A700F23FB1881
:1018DC0001221A70BB1C1B78032B00D1F3E100DD35
:1018EC00B7E2012B03D0022B00D107E1B1E2FB1CC4
:1018FC001B78132B00D9FBE09A00E74BD3181B681D
:10190C009F460E23FB183F221A700D23FB18FF2253
:10191C001A700C23FB1887221A70EEE00E23FB18AA
:10192C001F221A700D23FB18FF221A700C23FB18B0
:10193C0087221A70E1E00E23FB180F221A700D2378
:10194C00FB18FF221A700C23FB1887221A70D4E0A4
:10195C000E23FB180F221A700D23FB18BA221A70D3
:10196C000C23FB1807221A70C7E00E23FB180F225A
:10197C001A700D23FB18F1221A700C23FB18852208
:10198C001A70BAE00E23FB1809221A700D23FB18EB
:10199C00BE221A700C23FB1807221A70ADE00E231E
:1019AC00FB1807221A700D23FB18FF221A700C2348
:1019BC00FB1887221A70A0E00E23FB1807221A705E
:1019CC000D23FB18FA221A700C23FB1887221A70AD
:1019DC0093E00E23FB1803221A700D23FB18FF2231
:1019EC001A700C23FB1887221A7086E00E23FB1842
:1019FC0003221A700D23FB18BE221A700C23FB183D
:101A0C0007221A7079E00E23FB1803221A700D239B
:101A1C00FB18AD221A700C23FB1807221A706CE00D
:101A2C000E23FB1803221A700D23FB18FA221A70CE
:101A3C000C23FB1887221A705FE00E23FB1803227D
:101A4C001A700D23FB18F0221A700C23FB18862237
:101A5C001A7052E00E23FB1801221A700D23FB188A
:101A6C00FA221A700C23FB1887221A7045E00E23F9
:101A7C00FB1841221A700D23FB18F1221A700C234B
:101A8C00FB1885221A7038E00E23FB1800221A70FE
:101A9C000D23FB18F0221A700C23FB1886221A70E7
:101AAC002BE00E23FB1800221A700D23FB18A0222A
:101ABC001A700C23FB1804221A701EE00E23FB185C
:101ACC0040221A700D23FB1892221A700C23FB185B
:101ADC0002221A7011E00E23FB1800221A700D233B
:101AEC00FB18D0221A700C23FB1882221A7004E007
:101AFC000F23FB1800221A70C046AFE1FB1C1B78A9
:101B0C00033B102B00D9D8E09A00644BD3181B6808
:101B1C009F460E23FB180C221A700D23FB18BF22B4
:101B2C001A700C23FB1805221A70CBE00E23FB183D
:101B3C000B221A700D23FB18B6221A700C23FB18FB
:101B4C0004221A70BEE00E23FB180B221A700D2310
:101B5C00FB18AC221A700C23FB1803221A70B1E08C
:101B6C000E23FB180C221A700D23FB18A4221A70DA
:101B7C000C23FB1802221A70A4E00E23FB18092276
:101B8C001A700D23FB18A4221A700C23FB180322C5
:101B9C001A7097E00E23FB1805221A700D23FB1800
:101BAC00B6221A700C23FB1804221A708AE00E233A
:101BBC00FB1804221A700D23FB18A4221A700C2394
:101BCC00FB1803221A707DE00E23FB1803221A70F7
:101BDC000D23FB18B5221A700C23FB1803221A7064
:101BEC0070E00E23FB1802221A700D23FB18BE2284
:101BFC001A700C23FB1804221A7063E00E23FB18D6
:101C0C0002221A700D23FB18B6221A700C23FB1833
:101C1C0004221A7056E00E23FB1801221A700D23B1
:101C2C00FB18BF221A700C23FB1806221A7049E00D
:101C3C000E23FB1801221A700D23FB18A4221A7014
:101C4C000C23FB1803221A703CE00E23FB18002215
:101C5C001A700D23FB18BF221A700C23FB180622D6
:101C6C001A702FE00E23FB1800221A700D23FB189C
:101C7C009B221A700C23FB1802221A7022E00E23EE
:101C8C00FB1800221A700D23FB1892221A700C23D9
:101C9C00FB1801221A7015E098780008E878000803
:101CAC000E23FB1800221A700D23FB1888221A70C1
:101CBC000C23FB1801221A7004E00F23FB180022DE
:101CCC001A70C046CAE0FB1C1B78132B00D9BAE073
:101CDC009A00744BD3181B689F460E23FB181F22C7
:101CEC001A700D23FB18BF221A700C23FB18072245
:101CFC001A70ADE00E23FB180F221A700D23FB187F
:101D0C00BF221A700C23FB1807221A70A0E00E23B6
:101D1C00FB1807221A700D23FB18BF221A700C2314
:101D2C00FB1807221A7093E00E23FB1807221A7077
:101D3C000D23FB18A4221A700C23FB1804221A7012
:101D4C0086E00E23FB1803221A700D23FB18BF220A
:101D5C001A700C23FB1807221A7079E00E23FB185B
:101D6C0003221A700D23FB18B4221A700C23FB18D3
:101D7C0006221A706CE00E23FB1801221A700D2338
:101D8C00FB18BF221A700C23FB1807221A705FE095
:101D9C000E23FB1801221A700D23FB18B4221A70A3
:101DAC000C23FB1806221A7052E00E23FB1801229A
:101DBC001A700D23FB18B1221A700C23FB18052284
:101DCC001A7045E00E23FB1800221A700D23FB1825
:101DDC00B4221A700C23FB1806221A7038E00E235A
:101DEC00FB1800221A700D23FB18B1221A700C2359
:101DFC00FB1805221A702BE00E23FB1800221A7018
:101E0C000D23FB1890221A700C23FB1802221A7057
:101E1C001EE00E23FB1800221A700D23FB188022E3
:101E2C001A700C23FB1801221A7011E00E23FB18F8
:101E3C0000221A700D23FB1880221A700C23FB1839
:101E4C0000221A7004E00F23FB1800221A70C046FF
:101E5C0004E00F23FB1800221A70C0460F23FB1856
:101E6C001B78002B19D00E23FB181A787B682A21BB
:101E7C001800FFF7FAFB0D23FB181A787B68292151
:101E8C001800FFF7F2FB0C23FB181A787B6828214B
:101E9C001800FFF7EAFB002300E001231800BD4601
:101EAC0004B080BD2C790008F0B585B000AF786027
:101EBC000E23FB1830221A700D23FB1840221A70C7
:101ECC000C23FB1850221A700F23FB1800221A70D7
:101EDC002CE00E243B1919787B6800221800FFF7C0
:101EEC00C4FB0D257B1919787B6800221800FFF7BD
:101EFC00BCFB0C26BB1919787B6800221800FFF775
:101F0C00B4FB3B191A783B1901321A707B191A78F9
:101F1C007B1901321A70BB191A78BB1901321A706D
:101F2C000F217B181A787B1801321A700F23FB18BB
:101F3C001B780D2BCDD97B68002260211800FFF790
:101F4C0094FB7B68002270211800FFF78EFBC046C3
:101F5C00BD4605B0F0BDB0B584B000AF78600800E8
:101F6C001100FB1C021C1A70BB1C0A1C1A707B682B
:101F7C001800FFF741FB0F257C197B6880211800A6
:101F8C00FFF712FC030023707B191B78002B05D084
:101F9C000A2000F05BFF7B191B784AE00A2000F056
:101FAC0055FFBB1C1A78FB1C19787B681800FFF7CF
:101FBC0081FC031E06D00A2000F048FF0F23FB18FB
:101FCC001B7836E00A2000F041FF0F243B191B78E8
:101FDC00002B2BD17B681800FFF766FF7B68032270
:101FEC002B211800FFF741FB786804236422602141
:101FFC00FFF761FB7868002360227021FFF75BFB21
:10200C0025003C197B6800211800FFF79FFB03009B
:10201C0023707B191B78002B05D00A2000F016FFCB
:10202C007B191B7805E00A2000F010FF0F23FB182A
:10203C001B781800BD4604B0B0BD80B586B000AFAB
:10204C00B9607A600F217B18021C1A7016203B189D
:10205C00BA681A807B181B78012B3BD17B68033341
:10206C003A181288D2B21A703B181B881B0A9AB203
:10207C007B680233D2B21A70BB681A0C3B181A80F8
:10208C003B181B88DAB27B68013303210A40D2B2B9
:10209C001A707B68013319783B181B88DBB2DB00A4
:1020AC00DBB21F229343DAB27B6801338A18D2B2B7
:1020BC001A707B6801331A787B68013308210A4354
:1020CC00D2B21A703B181B885B099BB2DAB27B68E0
:1020DC001A7017E016217B181B88DB089BB2DAB24A
:1020EC007B681A707B181B88DAB27B68013352014B
:1020FC00D2B21A707B68033300221A707B680233E9
:10210C0000221A70C046BD4606B080BDB0B586B080
:10211C0000AFF86008007A6019000B257B19021CCF
:10212C001A700A23FB180A1C1A701623FC187B1948
:10213C001B781800FFF70FFA030023702823FB18F5
:10214C001B78002B01D0402300E000232C217A18AF
:10215C00127852B213435AB21523FB181A70282363
:10216C00FB181B78012B02D17B1800221A7010234C
:10217C00FA1879680A23FB181B781800FFF75DFF23
:10218C00FB685B699847FB68DB691622BA18127802
:10219C00100098471723FB1800221A700EE0FB68FA
:1021AC001B6A17243A191278102179188A5C1000CE
:1021BC0098473B191A783B1901321A7017243B19AE
:1021CC001B78032BEBD9FB681B6A1522BA18127803
:1021DC00100098473B1900221A700FE0FB681B6A2D
:1021EC0017243A191278396B8A181278D2B2100067
:1021FC0098473B191A783B1901321A7017217A1833
:10220C002C23FB1812781B789A4203D27B181B786C
:10221C00072BE3D9FB689B6998470B23FB181A78AB
:10222C00FB681100180000F0A4F8C046BD4606B0CB
:10223C00B0BDB0B586B000AFF8607A603B600B24DF
:10224C003B190A1C1A70FB685B699847FB68DB69D1
:10225C003A191278100098471723FB1800221A70AD
:10226C000FE0FB685B6A17257A191478984703000E
:10227C001A001023FB181A557B191A787B19013296
:10228C001A701723FB181B78032BEAD910217B1823
:10229C001B78DB007A1852785209D2B29B181A00BC
:1022AC007B681A603B6800221A707B185B781A00F6
:1022BC00082313401ED07B681B689A0008007B180B
:1022CC005B78190003230B40D2187B681A607B687B
:1022DC001B681B023A1892789A187B681A607B6804
:1022EC001B681B023A18D2789A187B681A603B68F4
:1022FC0001221A70FB685B6A16257C19984703004B
:10230C00237029007B181B780F221340DAB2FB6A6A
:10231C001A707B181B789B11DBB201221340DAB2C6
:10232C00BB6A1A701723FB1800221A700EE0FB68A8
:10233C005B6A17257A191278396B8C189847030049
:10234C0023707B191A787B1901321A70FB6A1B787F
:10235C00DBB217217A1812789A4203D27B181B78B9
:10236C00072BE4D9FB689B699847C046BD4606B06D
:10237C00B0BD90B583B000AF78600A00FB1C1A703A
:10238C007B685B6998477B68DC69FB1C1B781800D1
:10239C00FFF7C6F803001800A0477B689B699847B5
:1023AC00C046BD4603B090BD90B585B000AF786017
:1023BC0039607B681800FFF7AEF9030019000E2096
:1023CC003B1854220A401A703B6800221A703B18C2
:1023DC001B78542B01D102233CE00F23FB18002265
:1023EC001A702CE00F243B191B781800FFF7E9F842
:1023FC0003001A000E23FB181B781340DBB2002BD2
:10240C0017D13B191B781800FFF76FF80300013345
:10241C00DAB23B681A703B191B781800FFF7B6F854
:10242C0003001A00786800232C21FFF744F90023DD
:10243C0010E00F217B181A787B1801321A700F23C9
:10244C00FB181A787B68DB7C190003235B1A9A4211
:10245C00C8DB02231800BD4605B090BDB0B586B0F0
:10246C0000AFF860B960FB1D1A70BB68D9B21725B4
:10247C007C19FB1D1A78FB681800FFF76CFD030034
:10248C0023707B191B785A1E9341DBB21800BD4692
:10249C0006B0B0BD90B589B004AFF860B960190052
:1024AC00FB1D1A70BB1D0A1C1A70BB1D1C78FB1D72
:1024BC001A78B968F868012302937B6A0193202388
:1024CC00FB181B780093230000F005F8030018009C
:1024DC00BD4605B090BDF0B58BB004AFF860B960E7
:1024EC001900FB1D1A70BB1D0A1C1A701623FB1851
:1024FC0000221A80FB68BA685A60FB68FA1D1278D1
:10250C001A70FB68BA1D12781A721623FB181B88F6
:10251C00002B02D00A2000F09BF915257C191323FF
:10252C00FA18FB6811001800FFF73EFF0300237038
:10253C0016217B181A887B1801321A807B191B789C
:10254C00022B03D17B181B88312BDED91623FB18E9
:10255C001B88322B01D1062352E01323FB18197868
:10256C00FB1D1C78BA68F8687B6B0293282308253E
:10257C005B19DB191B780193BB1D1B78009323009F
:10258C00FFF7C4FD30235B19DB191B785BB2002B02
:10259C0035D01623FB1800221A801623FB181B8833
:1025AC00002B02D00A2000F053F91626BB191A880A
:1025BC00BB1901321A801323FB181B78013BDAB2CA
:1025CC0014257C19FB6811001800FFF72AF803008A
:1025DC00237028003B183A18127808210A401A7008
:1025EC003B181B78002B03D0BB191B88312BD4D97B
:1025FC001623FB181B88322B01D1072300E0002384
:10260C001800BD4607B0F0BD90B58BB004AFF860B4
:10261C007A603B600B203B180A1C1A7017243B197C
:10262C0004221A703B181B780122134010D0396811
:10263C007A68F8683B6B0293FB6A0193BB6A009360
:10264C000B009021FFF7F5FD3B1900221A7016E0E4
:10265C000B23FB181B780222134010D039687A68C0
:10266C00F8683B6B0293FB6A0193BB6A00930B0007
:10267C009421FFF7DEFD1723FB1800221A70172395
:10268C00FB181B78002B0ED1BB6A1B78DAB2FB68E7
:10269C001A723B681B78DAB2FB681A707B681A688E
:1026AC00FB685A6002E0FB6A00221A701723FB18C1
:1026BC001B781800BD4607B090BDF0B58BB004AFC9
:1026CC00F860B9607A601726BC19FB68180000F036
:1026DC0018F803002370FB681C1DFD68FB680833A9
:1026EC00BA191178F8687A680292BA680192009364
:1026FC002B002200FFF788FF03001800BD4607B02F
:10270C00F0BD80B584B000AF78607B681800FFF72F
:10271C0002F8030019000F203B18542291430A00C1
:10272C001A703B181B785B105BB2042213405AB230
:10273C003B181B789B105BB208210B405BB2134318
:10274C005AB23B181B785BB2DB105BB210210B400A
:10275C005BB213435AB23B181B785BB203210B409C
:10276C005BB213435AB23B181A703B181B78180013
:10277C00BD4604B080BDB0B584B000AF78600F2505
:10278C007C197B681800FEF7C6FF030023707B19C9
:10279C001B780322134001D0032300E0042318000C
:1027AC00BD4604B0B0BD000080B500AF044B0122A3
:1027BC000421180001F041FCC046BD4680BDC04656
:1027CC000004005080B500AF044B00220421180017
:1027DC0001F033FCC046BD4680BDC046000400502D
:1027EC0080B582B000AF0200FB1D1A70F91D0448C1
:1027FC006423012202F0D8FCC046BD4602B080BD65
:10280C00F003002080B582B000AF0200FB1D1A70EF
:10281C00F91D04486423012202F0C6FCC046BD46E3
:10282C0002B080BDF003002080B582B000AFFB1D6C
:10283C0000221A70F91D05486423012202F00CFED7
:10284C00FB1D1B781800BD4602B080BDF0030020B4
:10285C0080B586B000AF786048233B617B683A69ED
:10286C005343FB6000237B6102E07B6901337B6196
:10287C007A69FB689A42F8D3C046C046BD4606B09A
:10288C0080BD000080B582B000AF0F4B1A6C0E4BB0
:10289C0001210A431A640C4B1B6C012213407B6010
:1028AC007B68094BDA6B084B802149050A43DA63D4
:1028BC00054BDA6B80235B0513403B603B68C046DD
:1028CC00BD4602B080BDC0460010024090B59FB01E
:1028DC0000AF78606423FB18180014231A00002141
:1028EC0004F002FA18243B1918004C231A0000219A
:1028FC0004F0FAF97B681B68604A93425AD13B1981
:10290C00802292041A603B19802252009A643B196F
:10291C00180002F055F9031E01D0FEF7E1FD584BEB
:10292C001B685A1C564B1A60554B1B68012B0DD15A
:10293C00544BDA6B534B802149010A43DA63514BF8
:10294C00DA6B80235B0113407B617B694D4B5A6BC7
:10295C004C4B02210A435A634A4B5B6B02221340D5
:10296C003B613B6964217B18C02292001A607B1882
:10297C0002225A607B1800229A607B180022DA60CF
:10298C007B1803221A617B183F4A1900100001F0D2
:10299C00CBF900220021152000F028FB152000F0B7
:1029AC003AFB00220021162000F020FB162000F03C
:1029BC0032FB5EE07B681B68344A934259D1182184
:1029CC007B18802292041A607B18802252009A6431
:1029DC007B18180002F0F4F8031E01D0FEF780FDFE
:1029EC00274B1B685A1C264B1A60254B1B68012B66
:1029FC000DD1244BDA6B234B802149010A43DA6356
:102A0C00204BDA6B80235B011340FB60FB681D4B92
:102A1C005A6B1C4B02210A435A631A4B5B6B022202
:102A2C001340BB60BB6864217B1803221A607B18BF
:102A3C0002225A607B1800229A607B180022DA600E
:102A4C007B1803221A617B180F4A1900100001F041
:102A5C006BF900220021152000F0C8FA152000F0B7
:102A6C00DAFA00220021162000F0C0FA162000F03D
:102A7C00D2FAC046BD461FB090BDC04600640040AF
:102A8C00EC050020001002400004005000680040DB
:102A9C0090B58BB000AF786014243B191800142348
:102AAC001A00002104F020F97B681B681B4A934232
:102ABC0030D11B4B1A6C1A4B802149010A431A6402
:102ACC00174B1A6C80235B0113403B613B69144B21
:102ADC005A6B134B01210A435A63114B5B6B012256
:102AEC001340FB60FB6821007B1846221A607B18A0
:102AFC0002225A607B1800229A607B180022DA604E
:102B0C007B1800221A617A18A023DB05110018002B
:102B1C0001F00AF9C046BD460BB090BD0030014033
:102B2C000010024090B59DB000AF78605C23FB189C
:102B3C00180014231A00002104F0D6F810243B19B5
:102B4C0018004C231A00002104F0CEF87B681B6897
:102B5C00234A93423FD13B1901221A603B190022B0
:102B6C005A603B19180002F02BF8031E01D0FEF737
:102B7C00B7FC1C4B1A6C1B4B8021C9010A431A640D
:102B8C00184B1A6C8023DB011340FB60FB68154B60
:102B9C005A6B144B01210A435A63124B5B6B012293
:102BAC001340BB60BB685C217B18C022D2001A604A
:102BBC007B1802225A607B1800229A607B18002234
:102BCC00DA607B1801221A617A18A023DB05110048
:102BDC00180001F0A9F8C046BD461DB090BDC04616
:102BEC00003801400010024080B500AFFEE780B510
:102BFC0000AFFEE780B500AFC046BD4680BD80B5D6
:102C0C0000AFC046BD4680BD80B500AF00F002F9F4
:102C1C00C046BD4680BD80B500AF80235B00180068
:102C2C0001F044FAC046BD4680BD000080B500AF3F
:102C3C00054B180000F0FDFD044B180000F0F9FDE9
:102C4C00C046BD4680BDC046280300208C03002032
:102C5C0080B500AF054B180000F0EBFD044B1800DD
:102C6C0000F0E7FDC046BD4680BDC04628030020ED
:102C7C008C03002080B586B000AF7860144A154BE9
:102C8C00D31A7B617B693B61134B1B68002B02D110
:102C9C00114B124A1A60104B1A687B68D3183A69A8
:102CAC009A4207D203F0F6FF03000C221A600123AC
:102CBC005B4209E0084B1B68FB60074B1A687B689A
:102CCC00D218054B1A60FB681800BD4606B080BDD3
:102CDC000040022000040000F0050020080600203F
:102CEC0080B500AFC046BD4680BD00000D4885468E
:102CFC00FFF7F6FF0C480D490D4A002302E0D458AB
:102D0C00C4500433C4188C42F9D30A4A0A4C002329
:102D1C0001E013600432A242FBD303F0C1FFFDF7C4
:102D2C00ADFEFEE7004002200000002084000020E1
:102D3C00587A00088400002008060020FEE70000F6
:102D4C0080B582B000AFFB1D00221A700B4B1A68C5
:102D5C000A4B802149000A431A60032000F010F846
:102D6C00031E03D0FB1D01221A7001E0FFF78AFD40
:102D7C00FB1D1B781800BD4602B080BD0020024030
:102D8C0090B585B000AF78600F23FB1800221A7045
:102D9C001D4B1B78002B2BD01C4B1C681A4B1B7823
:102DAC001900FA239800FDF7B9F903001900200067
:102DBC00FDF7B4F90300180000F03DF9031E12D121
:102DCC007B68032B0AD8796801235B420022180028
:102DDC0000F00CF90E4B7A681A600DE00F23FB180B
:102DEC0001221A7008E00F23FB1801221A7003E06D
:102DFC000F23FB1801221A700F23FB181B781800E5
:102E0C00BD4605B090BDC0461C000020140000203B
:102E1C001800002080B500AF054B1B781A00054B3D
:102E2C001B68D218034B1A60C046BD4680BDC04615
:102E3C001C000020F405002080B500AF024B1B687D
:102E4C001800BD4680BDC046F405002080B584B096
:102E5C0000AF7860FFF7F0FF0300BB607B68FB609E
:102E6C00FB68013305D00A4B1B781A00FB689B18D2
:102E7C00FB60C046FFF7E0FF0200BB68D31AFA689C
:102E8C009A42F7D8C046C046BD4604B080BDC04685
:102E9C001C00002080B582B000AF0200FB1D1A7030
:102EAC00FB1D1B787F2B09D8FB1D1B781A001F23D9
:102EBC001A40044B012191400A001A60C046BD46DD
:102ECC0002B080BD00E100E090B583B000AF02001D
:102EDC003960FB1D1A70FB1D1B787F2B28D82F4ADD
:102EEC00FB1D1B785BB29B08C0339B009B58FA1DE3
:102EFC001278110003220A40D200FF2191400A00EF
:102F0C00D2431A4011003B689B01FF221A40FB1D63
:102F1C001B78180003230340DB009A401F48FB1D5D
:102F2C001B785BB29B080A43C0339B001A5031E0FC
:102F3C001B4AFB1D1B7819000F230B40083B9B08F9
:102F4C0006339B00D31804331B68FA1D127811004A
:102F5C0003220A40D200FF2191400A00D2431A40BA
:102F6C0011003B689B01FF221A40FB1D1B781800C7
:102F7C0003230340DB009A400948FB1D1B781C000F
:102F8C000F232340083B9B080A4306339B00C318BE
:102F9C0004331A60C046BD4603B090BD00E100E0AA
:102FAC0000ED00E080B582B000AF78607B685A1EFF
:102FBC0080235B049A4201D3012310E00A4B7A6808
:102FCC00013A5A6001235B4203211800FFF77CFF92
:102FDC00054B00229A60044B07221A60002318004C
:102FEC00BD4602B080BDC04610E000E080B584B0A4
:102FFC0000AFB9607A600F217B18021C1A70BA6896
:10300C007B181B785BB211001800FFF75DFFC04600
:10301C00BD4604B080BD80B582B000AF0200FB1D80
:10302C001A70FB1D1B785BB21800FFF733FFC0460C
:10303C00BD4602B080BD80B582B000AF78607B68C1
:10304C001800FFF7AFFF03001800BD4602B080BDAB
:10305C0080B584B000AF78607B68002B01D1012370
:10306C004EE17B685C229B5CDBB2002B07D17B685A
:10307C005D22002199547B681800FFF727FC7B68C0
:10308C001B689A697B681B6810218A439A61FFF759
:10309C00D3FE0300FB6012E0FFF7CEFE0200FB68DC
:1030AC00D31A0A2B0BD97B681B6E01221A437B683F
:1030BC001A667B685C2203219954012320E17B680A
:1030CC001B689B6908221340082BE5D07B681B68A2
:1030DC009A697B681B6801210A439A61FFF7ACFE71
:1030EC000300FB6012E0FFF7A7FE0200FB68D31A97
:1030FC000A2B0BD97B681B6E01221A437B681A665C
:10310C007B685C22032199540123F9E07B681B68DE
:10311C009B6901221340E6D07B681B689A697B6827
:10312C001B6802210A439A617B681B68764A9342AA
:10313C0003D1764A7B685B6813607B681B7C012B30
:10314C0008D17B681B689A697B681B6840218A439D
:10315C009A6107E07B681B689A697B681B68402151
:10316C000A439A617B685B7C012B09D17B681B68E5
:10317C009A697B681B688021C9010A439A6107E040
:10318C007B681B689A697B681B6861490A409A6175
:10319C007B689B7C012B08D17B681B689A697B68D8
:1031AC001B685C490A409A6108E07B681B689A6955
:1031BC007B681B68802149010A439A617B681B6804
:1031CC009B69554A134019007B689A687B681B6899
:1031DC000A439A617B681B689A697B681B68A42107
:1031EC008A439A617B681B681A697B681B6810218B
:1031FC008A431A617B68DB68012B08D17B681B68EA
:10320C009A697B681B6804210A439A612CE07B68ED
:10321C00DB68002B28D07B68DB68022B1CD07B681A
:10322C001B689A697B681B6880210A439A617B68DA
:10323C001B681A697B681B6810210A431A617B683A
:10324C00DB68032B10D17B681B689A697B681B6851
:10325C0020210A439A6107E07B681B689A697B68A6
:10326C001B6820210A439A617B689B69013B5A06C3
:10327C007B68DB69013B1B021A437B681B6A013BC1
:10328C001A4311007B685B69013B1A047B681B685D
:10329C000A43DA617B689A68C0239B009A4215D175
:1032AC007B689B6A5A1E7B68DB6A013B1B021A43D4
:1032BC007B681B6B013B1B011A4311007B685B6A2B
:1032CC00013B1A047B681B680A43DA607B681B6845
:1032DC00C02299587B68DA6B7B681B680A43C02153
:1032EC005A507B68180000F037FC7B6800229A6506
:1032FC007B6800221A667B685C22012199540023AA
:10330C001800BD4604B080BD00640040006500405C
:10331C00FFBFFFFFFFEFFFFFFFFCFFFF80B584B097
:10332C0000AFF860B9607A603B60FB685C229B5C24
:10333C00DBB2012B17D1FB681B6880229B583F2204
:10334C0093431900BB681A017B689B001A433B68C6
:10335C005B001A43BB691A43FB681B680A43802154
:10336C005A50002306E0FB681B6E04221A43FB68CC
:10337C001A6601231800BD4604B080BD80B582B02A
:10338C0000AF78607B685C229B5CDBB2012B10D1B8
:10339C007B685C22022199547B681B689A697B6864
:1033AC001B6801218A439A617B6800221A660023FC
:1033BC0006E07B681B6E04221A437B681A660123A5
:1033CC001800BD4602B080BD80B586B000AFF86075
:1033DC00B9607A60FB685C229B5CDBB2022B2DD15E
:1033EC00FB681B68C4229A5880239B03134008D0A7
:1033FC00FB681B6E802292001A43FB681A6601233D
:10340C0023E0FB681B68C4229B581B0C032213404F
:10341C007B617B697A68B968F86800F009FCFB6825
:10342C001B6801217A6991400A00CC215A50012273
:10343C007B699A40FB689A65002306E0FB681B6E6B
:10344C0008221A43FB681A6601231800BD4606B011
:10345C0080BD000080B58AB000AFF860B9607A60BA
:10346C003B601B203B18FA685C21525C1A703B18BD
:10347C001B78022B00D0C1E0BB68402B21D1FB682C
:10348C001B6890229B580F22134008D1FB681B6EBF
:10349C00802252001A43FB681A660123B5E0FB68D0
:1034AC001B6890229B581B0A03221340FB61FB688C
:1034BC00996CFA691300DB009B18DB00CB187B625C
:1034CC0020E0FB681B6898229B580F22134008D100
:1034DC00FB681B6E802252001A43FB681A6601239C
:1034EC0093E0FB681B6898229B581B0A032213402D
:1034FC00FB61FB68D96CFA691300DB009B18DB00DD
:10350C00CB187B627B6A1A688023DB051A407B68C8
:10351C005A607B685B68002B07D17B6A1B689B0C2D
:10352C005B055A0D7B681A6005E07B6A1B68DB0043
:10353C00DA087B681A607B6A1A6880239B051A403C
:10354C007B689A607B6A1B68DB0FDA077B681A6101
:10355C007B6A04337B627B6A1B681B041A0C7B68D6
:10356C00DA617B6A1A68F0231B031A407B68DA6005
:10357C007B6A1A6880235B031A407B685A617B6AFA
:10358C001A6880239B031A407B689A617B6A1B68CC
:10359C001B0E7F221A407B681A627B6A1B68DA0F4B
:1035AC007B685A627B6A04337B627B6A7B61002393
:1035BC003B620AE07A693B6AD21839683B6ACB18DD
:1035CC0012781A703B6A01333B627B68DB681B0C18
:1035DC00104AD35C1A003B6A9342EBD3BB68402B76
:1035EC0005D1FB681B689421FA695A5004E0FB680A
:1035FC001B689C21FA695A50002306E0FB681B6E7D
:10360C0008221A43FB681A6601231800BD460AB04B
:10361C0080BDC046DC79000880B586B000AFF8608C
:10362C00B9607A6017203B18FA685C21525C1A70FA
:10363C000200BB181B78012B03D0BB181B78022B84
:10364C0016D17B68012B09D1FB681B689A6DBB688E
:10365C00D943FB681B680A409A6507E0FB681B6846
:10366C00996DFB681B68BA680A439A65002306E0EB
:10367C00FB681B6E02221A43FB681A6601231800B2
:10368C00BD4606B080BD80B586B000AFF860B960AD
:10369C007A6017203B18FA685C21525C1A700200A1
:1036AC00BB181B78012B04D0BB181B78022B00D045
:1036BC00B4E0FB681B689B6D3B61BB680722134041
:1036CC0003D03B690122134034D0BB68382213402D
:1036DC0003D03B69022213402CD0BA68E0235B0074
:1036EC00134003D03B690422134023D0BA68F02363
:1036FC005B01134003D03B69082213401AD0BA680F
:10370C00E0231B02134003D03B691022134011D05D
:10371C00BA68C0239B02134003D03B69202213409C
:10372C0008D0BA68FC231B0413400BD03B69402221
:10373C00134007D1FB681B68DA6DFB681B6801211D
:10374C000A43DA65BB680722134003D03B690122A8
:10375C00134034D1BB683822134003D03B6902229A
:10376C0013402CD1BA68E0235B00134003D03B69B3
:10377C000422134023D1BA68F0235B01134003D019
:10378C003B69082213401AD1BA68E0231B0213408C
:10379C0003D03B691022134011D1BA68C0239B029D
:1037AC00134003D03B692022134008D1BA68FC2394
:1037BC001B0413400BD03B694022134007D0FB681D
:1037CC001B68DA6DFB681B6802210A43DA65BB686B
:1037DC008022134009D0FB681B68DC229958FB68D7
:1037EC001B687A680A43DC215A50BA6880235B0054
:1037FC00134009D0FB681B68E0229958FB681B68D2
:10380C007A680A43E0215A50FB681B68596DFB68C3
:10381C001B68BA680A435A65002306E0FB681B6EF6
:10382C0002221A43FB681A6601231800BD4606B033
:10383C0080BD80B58CB000AF78607B681B681A6D5A
:10384C00E0235B011340FB627B681B685A6DFB6ACB
:10385C001340FB627B681B681B6D07221340BB6225
:10386C007B681B685A6DBB6A1340BB627B681B6824
:10387C001B6D382213407B627B681B685A6D7B6A18
:10388C0013407B627B681B681A6DF1231B04134089
:10389C003B627B681B685A6D3B6A13403B627B68DA
:1038AC001B681A6DE0231B031340FB617B681B68CC
:1038BC005A6DFB691340FB617B681B685B6DBB61D8
:1038CC007B681B681B6D7B617B699B091A0001235C
:1038DC0013400DD0BB699B091A000123134007D07C
:1038EC007B681B6840221A657B68180000F01BF986
:1038FC007B691B0A1A00012313401CD0BB691B0AED
:10390C001A000123134016D07B681B68D8229B58E1
:10391C003B617B681B68E0229A583B6913403B6112
:10392C007B681B68802252001A653A697B6811001B
:10393C00180000F0DFF8FB6A002B09D07B681B68CD
:10394C00FA6A1A65FA6A7B681100180000F0B8F878
:10395C00BB6A002B09D07B681B68BA6A1A65BA6A05
:10396C007B6811001800FDF7F7FC7B6A002B09D06F
:10397C007B681B687A6A1A657A6A7B681100180082
:10398C00FDF734FD7B695B0A1A00012313400ED04E
:10399C00BB695B0A1A000123134008D07B681B68C3
:1039AC00802292001A657B68180000F092F87B69FF
:1039BC00DB091A00012313401BD0BB69DB091A0079
:1039CC000123134015D07B681B68D4229B58FB60E5
:1039DC007B681B68DC229A58FB681340FB607B6891
:1039EC001B6880221A65FA687B681100180000F0C9
:1039FC0078F87B695B0B1A00012313400ED0BB696E
:103A0C005B0B1A000123134008D07B681B688022D3
:103A1C0092011A657B68180000F075F87B69DB0B66
:103A2C001A00012313400ED0BB69DB0B1A000123D3
:103A3C00134008D07B681B68802212021A657B68D1
:103A4C00180000F068F87B699B0B1A0001231340E7
:103A5C0010D0BB699B0B1A00012313400AD07B6862
:103A6C001B688022D2011A657B681B6E80221A4368
:103A7C007B681A66FB69002B09D07B681B68FA69A6
:103A8C001A65FA697B681100180000F05CF83B6A53
:103A9C00002B09D07B681B683A6A1A657B681A6E22
:103AAC003B6A1A437B681A667B681B6E002B03D03B
:103ABC007B68180000F03FF8C046BD460CB080BDD6
:103ACC0080B582B000AF78603960C046BD4602B0A8
:103ADC0080BD80B582B000AF7860C046BD4602B0F4
:103AEC0080BD80B582B000AF78603960C046BD46FD
:103AFC0002B080BD80B582B000AF78603960C0463E
:103B0C00BD4602B080BD80B582B000AF7860C046C3
:103B1C00BD4602B080BD80B582B000AF7860C046B3
:103B2C00BD4602B080BD80B582B000AF7860C046A3
:103B3C00BD4602B080BD80B582B000AF7860C04693
:103B4C00BD4602B080BD80B582B000AF78603960F0
:103B5C00C046BD4602B080BD80B584B000AF786071
:103B6C002F4BBB607B681B682E4A934205D1BB6808
:103B7C00D422920094466344BB607B68BA681A6492
:103B8C007B681B6880229B58274A134019007B686E
:103B9C005B6B1A047B681B680A4380215A50BB6814
:103BAC0070331A007B685A647B681B6880229B58B0
:103BBC001E4A134019007B689B6B1A067B681B68B6
:103BCC000A4380215A50BB68B0331A007B689A6450
:103BDC00BB688933FF331A007B68DA64BB689822B0
:103BEC0092009A187B681A65BB689E2292009A18FC
:103BFC007B685A65BB68FB6005E0FB6800221A60B5
:103C0C00FB680433FB60BB68D42292009446634487
:103C1C00FA689A42F1D3C046C046BD4604B080BD96
:103C2C0000B4004000680040FFFFE0FFFFFFFFF022
:103C3C0080B588B000AFF860B9607A603B60BB6853
:103C4C005B68002B0AD1BB681A69BB689B681A4376
:103C5C00BB681B689B041343FB610BE0BB681A69D0
:103C6C00BB689B681A43BB681B6813438022D20550
:103C7C001343FB61BB681B6A1A06BB68DB691A43FA
:103C8C00BB689B691A43BB685B691A43BB68DB68FA
:103C9C0013433B61FB68596D3A681300DB009B18BA
:103CAC00DB00CB18BB61BB69FA691A60BB690433D2
:103CBC00BB61BB693A691A60BB690433BB61002301
:103CCC007B6120E07B6903337A68D3181B781A0672
:103CDC007B6902337968CB181B781B041A437B6908
:103CEC0001337968CB181B781B02134379687A6906
:103CFC008A1812781A43BB691A60BB690433BB611A
:103D0C007B6904337B61BB68DB681B0C054AD35CA5
:103D1C001A007B699342D5D3C046C046BD4608B055
:103D2C0080BDC046DC79000880B586B000AF7860F5
:103D3C00396000237B614DE13B681B6801217A6986
:103D4C0091400A001340FB60FB68002B00D13EE160
:103D5C003B685B6803221340012B05D03B685B6812
:103D6C0003221340022B30D17B689B683B617B693B
:103D7C005B0003229A401300DA433B6913403B611A
:103D8C003B68DA687B695B009A4013003A6913431D
:103D9C003B617B683A699A607B685B683B61012296
:103DAC007B699A401300DA433B6913403B613B68E3
:103DBC005B681B0901221A407B699A4013003A691F
:103DCC0013433B617B683A695A603B685B6803222A
:103DDC001340032B17D07B68DB683B617B695B006E
:103DEC0003229A401300DA433B6913403B613B6862
:103DFC009A687B695B009A4013003A6913433B61F4
:103E0C007B683A69DA603B685B6803221340022BDB
:103E1C0023D17B69DA087B6808329200D3583B6166
:103E2C007B69072213409B000F229A401300DA4350
:103E3C003B6913403B613B681A697B6907210B4066
:103E4C009B009A4013003A6913433B617B69DA0883
:103E5C007B68083292003969D1507B681B683B61E2
:103E6C007B695B0003229A401300DA433B691340E1
:103E7C003B613B685B6803221A407B695B009A409C
:103E8C0013003A6913433B617B683A691A603B68DB
:103E9C005A68C0239B02134000D198E0534A7B69B7
:103EAC009B0818339B009B583B617B690322134092
:103EBC00DB000F229A401300DA433B6913403B614D
:103ECC007A68A023DB059A4219D07B68484A934252
:103EDC0013D07B68474A93420DD07B68464A934285
:103EEC0007D07B68454A934201D1042308E005239F
:103EFC0006E0032304E0022302E0012300E0002398
:103F0C007A6903210A40D20093403A6913433B611A
:103F1C0036497B699B0818339B003A695A50334BDE
:103F2C001B683B61FB68DA433B6913403B613B68B0
:103F3C005A6880235B03134003D03A69FB68134330
:103F4C003B612A4B3A691A60284B5B683B61FB6802
:103F5C00DA433B6913403B613B685A6880239B03FF
:103F6C00134003D03A69FB6813433B611F4B3A691A
:103F7C005A601E4A8423D3583B61FB68DA433B6981
:103F8C0013403B613B685A6880239B02134003D06B
:103F9C003A69FB6813433B61144984223B698B509B
:103FAC00124A8023D3583B61FB68DA433B691340C8
:103FBC003B613B685A6880235B02134003D03A692B
:103FCC00FB6813433B61094980223B698B507B6939
:103FDC0001337B613B681A687B69DA40131E00D0A1
:103FEC00AAE6C046C046BD4606B080BD00180240D9
:103FFC000004005000080050000C0050001000504D
:10400C0080B584B000AF78600A00BB1C1A807B6856
:10401C001B69BA1C1288134004D00F23FB18012211
:10402C001A7003E00F23FB1800221A700F23FB18E1
:10403C001B781800BD4604B080BD80B582B000AFBF
:10404C00786008001100BB1C021C1A807B1C0A1C27
:10405C001A707B1C1B78002B04D0BB1C1A887B6845
:10406C009A6103E0BB1C1A887B689A62C046BD4605
:10407C0002B080BD80B584B000AF78600A00BB1C74
:10408C001A807B685B69FB60BB1C1B88FA68134059
:10409C001A04FB68DB43B91C09880B401A437B6884
:1040AC009A61C046BD4604B080BD000080B582B0A8
:1040BC0000AF0200BB1D1A80104BDB68BA1D1288C2
:1040CC00134008D00D4BBA1D1288DA60BB1D1B883B
:1040DC00180000F015F8094B1B69BA1D1288134023
:1040EC0008D0064BBA1D12881A61BB1D1B8818001C
:1040FC00FDF7E6F9C046BD4602B080BD001802408F
:10410C0080B582B000AF0200BB1D1A80C046BD4610
:10411C0002B080BD80B584B000AF7860194B1B68CD
:10412C00194A13401900174B7A680A431A607A68C7
:10413C0080239B009A421FD1144B1A6813005B001A
:10414C009B185B0012491800FBF7E8FF03000133D2
:10415C00FB6008E0FB68002B03D0FB68013BFB60B5
:10416C0001E0032309E0074B5A698023DB001A4066
:10417C008023DB009A42EDD000231800BD4604B02A
:10418C0080BDC04600700040FFF9FFFF1400002006
:10419C0040420F0080B500AF034B9A68E023DB016F
:1041AC0013401800BD4680BD0010024080B588B099
:1041BC0000AF78607B68002B02D1012300F050FB2C
:1041CC007B681B680122134000D17CE0C34B9B68C9
:1041DC0038221340BB61C14BDB68032213407B6167
:1041EC00BB69102B02D17B69032B02D0BB69082B56
:1041FC000BD1BA4B1A6880239B02134062D07B68A8
:10420C005B68002B5ED101232AE37B685A6880230C
:10421C005B029A4207D1B14B1A68B04B802149021C
:10422C000A431A6020E07B685A68A023DB029A429A
:10423C000ED1AA4B1A68A94B8021C9020A431A60F5
:10424C00A64B1A68A54B802149020A431A600BE061
:10425C00A24B1A68A14BA2490A401A609F4B1A68DC
:10426C009E4BA0490A401A607B685B68002B14D0F7
:10427C00FEF7E2FD03003B6108E0FEF7DDFD020006
:10428C003B69D31A642B01D90323E9E2934B1A68D7
:10429C0080239B021340F0D015E0FEF7CDFD030008
:1042AC003B6108E0FEF7C8FD02003B69D31A642BA2
:1042BC0001D90323D4E2894B1A6880239B02134053
:1042CC00F0D100E0C0467B681B680222134000D18D
:1042DC0099E0824B9B6838221340BB617F4BDB68B3
:1042EC00032213407B61BB69102B02D17B69022B2B
:1042FC0002D0BB69002B35D1784B1A688023DB00C8
:10430C00134005D07B68DB68002B01D10123A7E2A9
:10431C00724B5B68744A134019007B685B691A0224
:10432C006E4B0A435A60BB69002B12D16B4B1B6856
:10433C006E4A134019007B681A69684B0A431A606D
:10434C00664B1B68DB0A07221340694ADA40694B4B
:10435C001A60694B1B681800FEF712FD031E51D042
:10436C0001237DE27B68DB68002B30D05B4B1B6844
:10437C005E4A134019007B681A69584B0A431A604D
:10438C00564B1A68554B802149000A431A60FEF7B8
:10439C0053FD03003B6108E0FEF74EFD02003B6954
:1043AC00D31A022B01D903235AE24C4B1A688023EF
:1043BC00DB001340F0D0494B5B684B4A13401900AB
:1043CC007B685B691A02454B0A435A601BE0434BFE
:1043DC001A68424B49490A401A60FEF72DFD03004A
:1043EC003B6108E0FEF728FD02003B69D31A022B63
:1043FC0001D9032334E2394B1A688023DB001340C4
:10440C00F0D100E0C0467B681B680822134047D0FF
:10441C00324B9B6838221340182B0AD12F4B1B6E42
:10442C00022213403CD07B689B69002B38D10123BE
:10443C0016E27B689B69002B19D0284B1A6E274B10
:10444C0001210A431A66FEF7F7FC03003B6108E002
:10445C00FEF7F2FC02003B69D31A022B01D90323AD
:10446C00FEE11E4B1B6E02221340F1D018E01B4BD9
:10447C001A6E1A4B01218A431A66FEF7DDFC030003
:10448C003B6108E0FEF7D8FC02003B69D31A022B13
:10449C0001D90323E4E1114B1B6E02221340F1D12D
:1044AC007B681B680422134000D1C7E01F23FB1854
:1044BC0000221A70094B9B6838221340202B1FD105
:1044CC00064BDB6D0222134000D1B7E07B689B6882
:1044DC00002B00D0B2E00123C2E1C0460010024024
:1044EC00FFFFFEFFFFFFFBFFFF80FFFFFFC7FFFF8C
:1044FC000024F4001400002018000020FFFEFFFF31
:10450C00B54BDA6B80235B05134001D1012300E02E
:10451C000023002B11D0B04BDA6BAF4B8021490537
:10452C000A43DA63AC4BDA6B80235B051340FB6008
:10453C00FB681F23FB1801221A70A84B1A688023F2
:10454C005B0013401AD1A54B1A68A44B802149007B
:10455C000A431A60FEF770FC03003B6108E0FEF7AB
:10456C006BFC02003B69D31A022B01D9032377E1C0
:10457C009A4B1A6880235B001340F0D07B689B68D1
:10458C00012B06D1944BDA6D934B01210A43DA656A
:10459C001CE07B689B68052B0CD18F4BDA6D8E4B26
:1045AC0004210A43DA658C4BDA6D8B4B01210A43EB
:1045BC00DA650BE0884BDA6D874B01218A43DA65AB
:1045CC00854BDA6D844B04218A43DA657B689B68E2
:1045DC00002B14D0FEF730FC03003B6109E0FEF722
:1045EC002BFC02003B69D31A7D4A934201D9032369
:1045FC0036E1794BDB6D02221340F0D013E0FEF76D
:10460C001BFC03003B6109E0FEF716FC02003B6952
:10461C00D31A734A934201D9032321E16E4BDB6D0C
:10462C0002221340F0D11F23FB181B78012B05D15C
:10463C00694BDA6B684B6B490A40DA637B681B6821
:10464C002022134039D07B68DB69002B1BD0624BD6
:10465C001A68614B8021C9030A431A60FEF7ECFB10
:10466C0003003B6108E0FEF7E7FB02003B69D31A4D
:10467C00022B01D90323F3E0574B1A6880231B0448
:10468C001340F0D019E0544B1A68534B56490A406A
:10469C001A60FEF7D1FB03003B6108E0FEF7CCFB90
:1046AC0002003B69D31A022B01D90323D8E04A4BF1
:1046BC001A6880231B041340F0D17B681B6A002B03
:1046CC0000D1CCE0444B9B6838221340102B00D116
:1046DC007BE07B681B6A022B56D13F4B1A683E4B22
:1046EC0042490A401A60FEF7A7FB03003B6108E051
:1046FC00FEF7A2FB02003B69D31A022B01D903235C
:10470C00AEE0354B1A6880239B041340F0D1324B3A
:10471C00DB68374A134019007B685A6A7B689B6ACE
:10472C001A437B68DB6A1B021A437B681B6B1A43B8
:10473C007B685B6B1A437B689B6B1A43264B0A4363
:10474C00DA60254B1A68244B802149040A431A600D
:10475C00214BDA68204B802149050A43DA60FEF7C9
:10476C006BFB03003B6108E0FEF766FB02003B6954
:10477C00D31A022B01D9032372E0174B1A6880233A
:10478C009B041340F0D06AE0134B1A68124B174984
:10479C000A401A60FEF750FB03003B6108E0FEF78D
:1047AC004BFB02003B69D31A022B01D9032357E0C0
:1047BC00094B1A6880239B041340F0D1064BDA682E
:1047CC00054B0C490A40DA6049E07B681B6A012BF7
:1047DC0012D1012344E0C04600100240007000409A
:1047EC0088130000FFFFFFEFFFFFBFFFFFFFFFFE7F
:1047FC008C80C111FCFFFEEE1B4BDB687B617B697F
:10480C0003221A407B685B6A9A4226D17B6970222C
:10481C001A407B689B6A9A421FD17A69FE23DB019E
:10482C001A407B68DB6A1B029A4216D17A69F8231C
:10483C009B031A407B681B6B9A420ED17A69E0236A
:10484C001B051A407B685B6B9A4206D17B695B0F38
:10485C005A077B689B6B9A4201D0012300E000232E
:10486C001800BD4608B080BD0010024080B584B071
:10487C0000AF786039607B68002B01D10123E9E03F
:10488C00764B1B68072213403A689A421ED9734B29
:10489C001B68072293431900704B3A680A431A604D
:1048AC00FEF7CAFA0300FB6009E0FEF7C5FA020046
:1048BC00FB68D31A6A4A934201D90323CAE0674BB7
:1048CC001B68072213403A689A42EED17B681B683A
:1048DC000222134015D07B681B680422134006D0BB
:1048EC00604B9A685F4BE021C9010A439A605D4BAB
:1048FC009B685D4A134019007B689A68594B0A43C0
:10490C009A607B681B680122134057D07B685B68F8
:10491C00012B07D1534B1A6880239B0213402BD1D8
:10492C00012397E07B685B68022B07D14D4B1A681B
:10493C0080239B0413401FD101238BE07B685B68B1
:10494C00002B07D1474B1A688023DB00134013D18F
:10495C0001237FE07B685B68032B06D1414B1B6E08
:10496C000222134008D1012374E03E4BDB6D02227E
:10497C00134001D101236DE03A4B9B68072293430E
:10498C0019007B685A68374B0A439A60FEF754FA51
:10499C000300FB6009E0FEF74FFA0200FB68D31A34
:1049AC002F4A934201D9032354E02E4B9B683822A3
:1049BC001A407B685B68DB009A42ECD1274B1B6882
:1049CC00072213403A689A421ED2244B1B680722D6
:1049DC0093431900214B3A680A431A60FEF72CFAEC
:1049EC000300FB6009E0FEF727FA0200FB68D31A0C
:1049FC001B4A934201D903232CE0184B1B68072256
:104A0C0013403A689A42EED17B681B68042213402B
:104A1C0009D0144B9B68154A134019007B68DA685F
:104A2C00104B0A439A6000F029F801000D4B9B686B
:104A3C001B0A0F221A400E4B9200D3581F22134010
:104A4C000A00DA400B4B1A600B4B1B681800FEF780
:104A5C0097F903001800BD4604B080BD0020024049
:104A6C008813000000100240FFF0FFFFFF8FFFFFD4
:104A7C007C790008140000201800002080B586B056
:104A8C0000AF3C4B9B68382213400FD1394B1B684D
:104A9C00DB0A0722134001229A4013003B6039685D
:104AAC003548FBF73BFB03003B615DE0314B9B68FA
:104ABC0038221340082B02D1304B3B6154E02D4B74
:104ACC009B6838221340102B38D12A4BDB68032209
:104ADC001340FB60274BDB681B0907221340013393
:104AEC00BB60FB68032B0DD1B9682448FBF716FBA0
:104AFC00030019001F4BDB681B0A7F2213404B433A
:104B0C007B610DE0B9681C48FBF708FB030019003A
:104B1C00184BDB681B0A7F2213404B437B61C0465A
:104B2C00144BDB685B0F0722134001337B60796801
:104B3C007869FBF7F3FA03003B6115E00D4B9B68BA
:104B4C0038221340202B03D180231B023B610BE046
:104B5C00084B9B6838221340182B03D1FA23DB0136
:104B6C003B6101E000233B613B691800BD4606B088
:104B7C0080BDC046001002400024F40000127A00F0
:104B8C0080B500AF024B1B681800BD4680BDC04607
:104B9C0014000020B0B500AFFFF7F2FF0400FFF7E0
:104BAC00F9FA03001A0B054B9200D3581F2213403D
:104BBC00DC4023001800BD46B0BDC046BC790008DF
:104BCC0080B586B000AF78601323FB1800221A70F2
:104BDC001223FB1800221A707B681A6880239B0230
:104BEC00134000D1ADE011203B1800221A70474B46
:104BFC00DA6B80235B05134010D1444BDA6B434BCB
:104C0C00802149050A43DA63404BDA6B80235B054C
:104C1C001340BB60BB683B1801221A703C4B1A68EE
:104C2C003B4B802149000A431A60FEF705F903004B
:104C3C00FB600BE0FEF700F90200FB68D31A022BB5
:104C4C0004D91323FB1803221A7005E0304B1A68A1
:104C5C0080235B001340EDD01323FB181B78002B33
:104C6C005ED12A4BDA6DC0239B0013407B617B69BC
:104C7C00002B19D07B681B6C7A699A4214D0234B99
:104C8C00DB6D244A13407B61204BDA6D1F4B802176
:104C9C0049020A43DA651D4BDA6D1C4B1E490A406A
:104CAC00DA651A4B7A69DA657B690122134016D0F2
:104CBC00FEF7C2F80300FB600CE0FEF7BDF8020043
:104CCC00FB68D31A154A934204D91323FB18032209
:104CDC001A7004E00D4BDB6D02221340EDD0132350
:104CEC00FB181B78002B0AD1084BDB6D094A1340CB
:104CFC0019007B681A6C054B0A43DA6516E012231F
:104D0C00FB181322BA1812781A700FE00010024028
:104D1C0000700040FFFCFFFFFFFFFEFF8813000048
:104D2C001223FB181322BA1812781A701123FB18CD
:104D3C001B78012B05D1B64BDA6BB54BB5490A4044
:104D4C00DA637B681B680122134009D0B04B5B6DA2
:104D5C000322934319007B685A68AD4B0A435A658A
:104D6C007B681B680222134009D0A94B5B6D0C2297
:104D7C00934319007B689A68A54B0A435A657B6874
:104D8C001B680422134009D0A14B5B6D3022934366
:104D9C0019007B68DA689E4B0A435A657B681B686E
:104DAC001022134009D09A4B5B6D9B4A134019009B
:104DBC007B681A69964B0A435A657B681A6880238C
:104DCC005B01134009D0924B5B6D944A1340190060
:104DDC007B685A698E4B0A435A657B681A68802334
:104DEC009B00134009D08A4B5B6D8D4A1340190010
:104DFC007B689A6A864B0A435A657B681A688023DB
:104E0C00DB00134009D0824B5B6D864A13401900BE
:104E1C007B68DA6A7E4B0A435A657B681B682022E2
:104E2C00134009D07A4B5B6D7F4A134019007B68A5
:104E3C009A69774B0A435A657B681B68402213407A
:104E4C0009D0734B5B6D794A134019007B68DA69A2
:104E5C006F4B0A435A657B681A688023DB01134049
:104E6C0015D06B4B5B6D9B0099087B681A6B684B7C
:104E7C000A435A657B681A6B8023DB059A4206D17C
:104E8C00634BDA68624B802149020A43DA607B6823
:104E9C001A6880231B03134009D05D4B5B6D4022C5
:104EAC00934319007B685A6B594B0A435A657B68CC
:104EBC001A6880239B03134016D0554B5B6D5C4ADC
:104ECC00134019007B689A6B514B0A435A657B68F7
:104EDC009A6B8023DB039A4206D14D4BDA684C4B1C
:104EEC00802149040A43DA607B681A688023DB035B
:104EFC00134016D0464B5B6D4E4A134019007B682D
:104F0C00DA6B434B0A435A657B68DA6B80235B048C
:104F1C009A4206D13E4BDA683D4B802149040A4344
:104F2C00DA607B681A6880231B01134014D0384B5D
:104F3C009B6D0322934319007B681A6A344B0A4316
:104F4C009A657B681B6A012B06D1314BDA68304BB2
:104F5C00802149020A43DA607B681A6880239B012E
:104F6C00134014D02A4B9B6D0C22934319007B6881
:104F7C005A6A274B0A439A657B685B6A042B06D1F5
:104F8C00234BDA68224B802149020A43DA607B68A2
:104F9C001A6880235B04134016D01D4B9B6D224A6C
:104FAC00134019007B685A6C194B0A439A657B684D
:104FBC005A6C80239B019A4206D1154BDA68144B2C
:104FCC00802149040A43DA607B681A6880239B04B9
:104FDC00134016D00E4B9B6D104A134019007B6882
:104FEC009A6C0B4B0A439A657B689A6C80235B0026
:104FFC009A4206D1064BDA68054B802149040A43D4
:10500C00DA601223FB181B781800BD4606B080BD71
:10501C0000100240FFFFFFEFFFF3FFFFFFFCFFFF5D
:10502C00FFFFF3FFFFFFCFFFFFCFFFFFFF3FFFFFB0
:10503C00FFFFBFFFFFFFFFFE80B584B000AF7860BD
:10504C007B68002B01D10123A8E07B685B6A002BF5
:10505C0009D17B685A6882235B009A4209D07B682D
:10506C000022DA6105E07B6800221A617B6800226D
:10507C005A617B6800229A627B685D229B5CDBB282
:10508C00002B07D17B685C22002199547B681800A7
:10509C00FDF7FEFC7B685D22022199547B681B683E
:1050AC001A687B681B6840218A431A607B68DA683F
:1050BC00E023DB009A4202D90023FB6002E080234C
:1050CC005B01FB607B68DA68F0231B019A4208D015
:1050DC007B68DA68E023DB009A4202D07B6800220E
:1050EC009A627B685A6882235B001A407B689968D5
:1050FC0084231B020B401A437B681B6902210B4063
:10510C001A437B685B6901210B401A437B689969E0
:10511C0080239B000B401A437B68DB6938210B40D2
:10512C001A437B681B6A80210B401A4311007B6871
:10513C009A6A80239B011A407B681B680A431A6099
:10514C007B689B691B0C04221A407B685B6A1021EC
:10515C000B401A437B685B6B08210B401A437B683E
:10516C00D968F0231B010B401A431100FA68802305
:10517C005B011A407B681B680A435A607B681B689A
:10518C00DA697B681B6807490A40DA617B68002290
:10519C001A667B685D220121995400231800BD46D4
:1051AC0004B080BDFFF7FFFF80B588B000AFF8609A
:1051BC00B9603B60BB1D1A801F23FB1800221A70BC
:1051CC00FB685C229B5C012B01D1022340E1FB6854
:1051DC005C2201219954FDF72FFE0300BB611623BD
:1051EC00FB18BA1D12881A80FB685D229B5CDBB22F
:1051FC00012B04D01F23FB1802221A701DE1BB687F
:10520C00002B03D0BB1D1B88002B04D11F23FB18C4
:10521C0001221A7011E1FB685D2203219954FB688D
:10522C0000221A66FB68BA689A63FB68BA1D12887A
:10523C009A87FB68BA1D1288DA87FB6800221A6409
:10524C00FB68442200219952FB68462200219952A6
:10525C00FB6800221A65FB680022DA64FB689A6816
:10526C0080231B029A4210D1FB681B681A68FB68EA
:10527C001B6840218A431A60FB681B681A68FB682C
:10528C001B688021C9010A431A60FB681B681B68F4
:10529C0040221340402B07D0FB681B681A68FB6840
:1052AC001B6840210A431A60FB68DA68E023DB00C4
:1052BC009A424ED9FB685B68002B04D01623FB186E
:1052CC001B88012B3FD1FB689B6B1A88FB681B6802
:1052DC00DA60FB689B6B9A1CFB689A63FB68DB8F3C
:1052EC009BB2013B9AB2FB68DA872CE0FB681B6827
:1052FC009B6802221340022B12D1FB689B6B1A880D
:10530C00FB681B68DA60FB689B6B9A1CFB689A63F2
:10531C00FB68DB8F9BB2013B9AB2FB68DA8712E029
:10532C00FDF78AFD0200BB69D31A3A689A4202D88B
:10533C003B68013302D13B68002B04D11F23FB18BF
:10534C0003221A7079E0FB68DB8F9BB2002BCDD166
:10535C004FE0FB685B68002B04D01623FB181B88FE
:10536C00012B41D1FB689A6BFB681B680C331278DC
:10537C001A70FB689B6B5A1CFB689A63FB68DB8F8B
:10538C009BB2013B9AB2FB68DA872DE0FB681B6885
:10539C009B6802221340022B13D1FB689A6BFB68AB
:1053AC001B680C3312781A70FB689B6B5A1CFB68D9
:1053BC009A63FB68DB8F9BB2013B9AB2FB68DA877E
:1053CC0012E0FDF739FD0200BB69D31A3A689A4224
:1053DC0002D83B68013302D13B68002B04D11F2358
:1053EC00FB1803221A7028E0FB68DB8F9BB2002BA2
:1053FC00CCD1BA693968FB68180000F0D9FC031EDF
:10540C0002D0FB6820221A66FB689B68002B0AD12D
:10541C0000233B61FB681B68DB683B61FB681B6816
:10542C009B683B613B69FB681B6E002B04D01F2300
:10543C00FB1801221A7000E0C046FB685D220121B6
:10544C009954FB685C22002199541F23FB181B788C
:10545C001800BD4608B080BD90B589B002AFF860A9
:10546C00B9603B60BB1D1A801723FB1800221A7011
:10547C00FB685A6882235B009A4213D1FB689B68D5
:10548C00002B0FD1FB685D2204219954BB1D1C8895
:10549C00BA68B968F8683B680093230000F028F9F3
:1054AC0003001CE1FB685C229B5C012B01D10223F5
:1054BC0015E1FB685C2201219954FDF7BDFC03004A
:1054CC003B61FB685D229B5CDBB2012B04D0172394
:1054DC00FB1802221A70F7E0BB68002B03D0BB1D2F
:1054EC001B88002B04D11723FB1801221A70EBE048
:1054FC00FB685D2204219954FB6800221A66FB6844
:10550C00BA681A64FB68BA1D442112885A52FB68A7
:10551C00BA1D462112885A52FB6800229A63FB6816
:10552C0000229A87FB680022DA87FB680022DA6483
:10553C00FB6800221A65FB68DA68E023DB009A42FC
:10554C0008D9FB681B685A68FB681B6866490A40E7
:10555C005A6008E0FB681B685A68FB681B6880216E
:10556C0049010A435A60FB689A6880231B029A42DD
:10557C000FD1FB681B681A68FB681B6840218A43C3
:10558C001A60FB681B681A68FB681B6857490A405D
:10559C001A60FB681B681B6840221340402B07D025
:1055AC00FB681B681A68FB681B6840210A431A6079
:1055BC00FB68DA68E023DB009A4200D969E031E04D
:1055CC00FB681B689B6801221340012B17D1FB68F9
:1055DC001B680C331A00FB681B6C1278D2B21A7061
:1055EC00FB681B6C5A1CFB681A64FB6846229B5AAE
:1055FC009BB2013B99B2FB684622995212E0FDF72F
:10560C001BFC02003B69D31A3A689A4202D83B68E9
:10561C00013302D13B68002B04D11723FB18032262
:10562C001A7051E0FB6846229B5A9BB2002BC7D1E3
:10563C0035E0FB681B689B6801221340012B15D1D8
:10564C00FB681B68DA68FB681B6C92B21A80FB68FB
:10565C001B6C9A1CFB681A64FB6846229B5A9BB213
:10566C00013B99B2FB684622995212E0FDF7E4FB2C
:10567C0002003B69D31A3A689A4202D83B6801335C
:10568C0002D13B68002B04D11723FB1803221A709C
:10569C001AE0FB6846229B5A9BB2002BC9D13A698F
:1056AC003968FB68180000F025FB031E02D0FB686C
:1056BC0020221A66FB681B6E002B04D01723FB18E4
:1056CC0001221A7000E0C046FB685D22012199544A
:1056DC00FB685C22002199541723FB181B781800D7
:1056EC00BD4607B090BDC046FFEFFFFFFFBFFFFFF9
:1056FC0080B58AB000AFF860B9607A601A00BB1C44
:10570C001A8001237B622323FB1800221A70FB688A
:10571C005C229B5C012B01D10223B5E1FB685C226E
:10572C0001219954FDF788FB0300FB611B203B18FA
:10573C00FA685D21525C1A70FB685B687B6112230E
:10574C00FB18BA1C12881A803B181B78012B11D03D
:10575C007A6982235B009A4207D1FB689B68002B15
:10576C0003D13B181B78042B04D02323FB180222F3
:10577C001A707EE1BB68002B06D07B68002B03D02F
:10578C00BB1C1B88002B04D12323FB1801221A708D
:10579C006FE1FB685D229B5CDBB2042B03D0FB68E2
:1057AC005D2205219954FB6800221A66FB687A6811
:1057BC001A64FB68BA1C462112885A52FB68BA1C40
:1057CC00442112885A52FB68BA689A63FB68BA1C67
:1057DC001288DA87FB68BA1C12889A87FB68002249
:1057EC00DA64FB6800221A65FB68DA68E023DB00E8
:1057FC009A4208D9FB681B685A68FB681B68A44965
:10580C000A405A6008E0FB681B685A68FB681B6812
:10581C00802149010A435A60FB681B681B684022BF
:10582C001340402B07D0FB681B681A68FB681B6889
:10583C0040210A431A60FB68DA68E023DB009A42D5
:10584C0000D87FE0FB685B68002B05D01223FB18A7
:10585C001B88012B00D069E0FB689B6B1A88FB68E6
:10586C001B68DA60FB689B6B9A1CFB689A63FB688D
:10587C00DB8F9BB2013B9AB2FB68DA8756E0FB6880
:10588C001B689B6802221340022B1BD1FB68DB8F29
:10589C009BB2002B16D07B6A012B13D1FB689B6B40
:1058AC001A88FB681B68DA60FB689B6B9A1CFB68A8
:1058BC009A63FB68DB8F9BB2013B9AB2FB68DA8779
:1058CC0000237B62FB681B689B6801221340012B41
:1058DC001CD1FB6846229B5A9BB2002B16D0FB684E
:1058EC001B68DA68FB681B6C92B21A80FB681B6C35
:1058FC009A1CFB681A64FB6846229B5A9BB2013BBC
:10590C0099B2FB684622995201237B62FDF794FA07
:10591C000200FB69D31A3A6B9A4207D83B6B0133EE
:10592C0004D02323FB1803221A70A2E0FB68DB8F40
:10593C009BB2002BA3D1FB6846229B5A9BB2002B37
:10594C009DD185E0FB685B68002B05D01223FB180A
:10595C001B88012B00D070E0FB689A6BFB681B68FE
:10596C000C3312781A70FB689B6B5A1CFB689A6399
:10597C00FB68DB8F9BB2013B9AB2FB68DA875CE079
:10598C00FB681B689B6802221340022B1CD1FB682E
:10599C00DB8F9BB2002B17D07B6A012B14D1FB68D9
:1059AC009A6BFB681B680C3312781A70FB689B6B44
:1059BC005A1CFB689A63FB68DB8F9BB2013B9AB263
:1059CC00FB68DA8700237B62FB681B689B680122FB
:1059DC001340012B1ED1FB6846229B5A9BB2002B15
:1059EC0018D0FB681B680C331A00FB681B6C127810
:1059FC00D2B21A70FB681B6C5A1CFB681A64FB68E9
:105A0C0046229B5A9BB2013B99B2FB6846229952A3
:105A1C0001237B62FDF710FA0200FB69D31A3A6B83
:105A2C009A4202D83B6B013302D13B6B002B04D161
:105A3C002323FB1803221A701BE0FB68DB8F9BB23D
:105A4C00002B9DD1FB6846229B5A9BB2002B97D111
:105A5C00FA69396BFB68180000F0AAF9031E07D02D
:105A6C002323FB1801221A70FB6820221A6600E01F
:105A7C00C046FB685D2201219954FB685C22002121
:105A8C0099542323FB181B781800BD460AB080BD1F
:105A9C00FFEFFFFF80B588B000AFF860B9603B60E6
:105AAC00FB1D1A70FDF7C8F90200BB6A9B1A3A6815
:105ABC00D318FB61FDF7C0F90300BB613A4B1B68BF
:105ACC005B011B0DFA6953437B6158E03B68013362
